{
	"data": {
		"bytecode": {
			"linkReferences": {},
			"object": "608060405260025f60016101000a81548160ff021916908360038111156026576025603a565b5b02179055503480156035575f5ffd5b506067565b7f4e487b71000000000000000000000000000000000000000000000000000000005f52602160045260245ffd5b610159806100745f395ff3fe608060405234801561000f575f5ffd5b5060043610610034575f3560e01c8063d5da6a2b14610038578063e589d58214610056575b5f5ffd5b610040610074565b60405161004d919061010a565b60405180910390f35b61005e610086565b60405161006b919061010a565b60405180910390f35b5f60019054906101000a900460ff1681565b5f5f9054906101000a900460ff1681565b7f4e487b71000000000000000000000000000000000000000000000000000000005f52602160045260245ffd5b600481106100d5576100d4610097565b5b50565b5f8190506100e5826100c4565b919050565b5f6100f4826100d8565b9050919050565b610104816100ea565b82525050565b5f60208201905061011d5f8301846100fb565b9291505056fea2646970667358221220ba170bceb3b0e297a64ec4b2475dcc83c4a24479359230cc166b2e0a0b39cebb64736f6c634300081e0033",
			"opcodes": "PUSH1 0x80 PUSH1 0x40 MSTORE PUSH1 0x2 PUSH0 PUSH1 0x1 PUSH2 0x100 EXP DUP2 SLOAD DUP2 PUSH1 0xFF MUL NOT AND SWAP1 DUP4 PUSH1 0x3 DUP2 GT ISZERO PUSH1 0x26 JUMPI PUSH1 0x25 PUSH1 0x3A JUMP JUMPDEST JUMPDEST MUL OR SWAP1 SSTORE POP CALLVALUE DUP1 ISZERO PUSH1 0x35 JUMPI PUSH0 PUSH0 REVERT JUMPDEST POP PUSH1 0x67 JUMP JUMPDEST PUSH32 0x4E487B7100000000000000000000000000000000000000000000000000000000 PUSH0 MSTORE PUSH1 0x21 PUSH1 0x4 MSTORE PUSH1 0x24 PUSH0 REVERT JUMPDEST PUSH2 0x159 DUP1 PUSH2 0x74 PUSH0 CODECOPY PUSH0 RETURN INVALID PUSH1 0x80 PUSH1 0x40 MSTORE CALLVALUE DUP1 ISZERO PUSH2 0xF JUMPI PUSH0 PUSH0 REVERT JUMPDEST POP PUSH1 0x4 CALLDATASIZE LT PUSH2 0x34 JUMPI PUSH0 CALLDATALOAD PUSH1 0xE0 SHR DUP1 PUSH4 0xD5DA6A2B EQ PUSH2 0x38 JUMPI DUP1 PUSH4 0xE589D582 EQ PUSH2 0x56 JUMPI JUMPDEST PUSH0 PUSH0 REVERT JUMPDEST PUSH2 0x40 PUSH2 0x74 JUMP JUMPDEST PUSH1 0x40 MLOAD PUSH2 0x4D SWAP2 SWAP1 PUSH2 0x10A JUMP JUMPDEST PUSH1 0x40 MLOAD DUP1 SWAP2 SUB SWAP1 RETURN JUMPDEST PUSH2 0x5E PUSH2 0x86 JUMP JUMPDEST PUSH1 0x40 MLOAD PUSH2 0x6B SWAP2 SWAP1 PUSH2 0x10A JUMP JUMPDEST PUSH1 0x40 MLOAD DUP1 SWAP2 SUB SWAP1 RETURN JUMPDEST PUSH0 PUSH1 0x1 SWAP1 SLOAD SWAP1 PUSH2 0x100 EXP SWAP1 DIV PUSH1 0xFF AND DUP2 JUMP JUMPDEST PUSH0 PUSH0 SWAP1 SLOAD SWAP1 PUSH2 0x100 EXP SWAP1 DIV PUSH1 0xFF AND DUP2 JUMP JUMPDEST PUSH32 0x4E487B7100000000000000000000000000000000000000000000000000000000 PUSH0 MSTORE PUSH1 0x21 PUSH1 0x4 MSTORE PUSH1 0x24 PUSH0 REVERT JUMPDEST PUSH1 0x4 DUP2 LT PUSH2 0xD5 JUMPI PUSH2 0xD4 PUSH2 0x97 JUMP JUMPDEST JUMPDEST POP JUMP JUMPDEST PUSH0 DUP2 SWAP1 POP PUSH2 0xE5 DUP3 PUSH2 0xC4 JUMP JUMPDEST SWAP2 SWAP1 POP JUMP JUMPDEST PUSH0 PUSH2 0xF4 DUP3 PUSH2 0xD8 JUMP JUMPDEST SWAP1 POP SWAP2 SWAP1 POP JUMP JUMPDEST PUSH2 0x104 DUP2 PUSH2 0xEA JUMP JUMPDEST DUP3 MSTORE POP POP JUMP JUMPDEST PUSH0 PUSH1 0x20 DUP3 ADD SWAP1 POP PUSH2 0x11D PUSH0 DUP4 ADD DUP5 PUSH2 0xFB JUMP JUMPDEST SWAP3 SWAP2 POP POP JUMP INVALID LOG2 PUSH5 0x6970667358 0x22 SLT KECCAK256 0xBA OR SIGNEXTEND 0xCE 0xB3 0xB0 0xE2 SWAP8 0xA6 0x4E 0xC4 0xB2 SELFBALANCE TSTORE 0xCC DUP4 0xC4 LOG2 PREVRANDAO PUSH26 0x359230CC166B2E0A0B39CEBB64736F6C634300081E0033000000 "
		},
		"gasEstimates": {
			"creation": {
				"codeDepositCost": "69000",
				"executionCost": "24463",
				"totalCost": "93463"
			},
			"external": {
				"status1()": "2553",
				"status2()": "2582"
			}
		},
		"methodIdentifiers": {
			"status1()": "e589d582",
			"status2()": "d5da6a2b"
		}
	},
	"abi": [
		{
			"inputs": [],
			"name": "status1",
			"outputs": [
				{
					"internalType": "enum ENUMERATOR.projectstatus",
					"name": "",
					"type": "uint8"
				}
			],
			"stateMutability": "view",
			"type": "function"
		},
		{
			"inputs": [],
			"name": "status2",
			"outputs": [
				{
					"internalType": "enum ENUMERATOR.projectstatus",
					"name": "",
					"type": "uint8"
				}
			],
			"stateMutability": "view",
			"type": "function"
		}
	]
}