{
	"data": {
		"bytecode": {
			"linkReferences": {},
			"object": "6080604052348015600e575f5ffd5b5061029c8061001c5f395ff3fe608060405234801561000f575f5ffd5b506004361061004a575f3560e01c806309e08bdf1461004e57806326faf0081461006e578063497420fb1461008e5780637297237f146100ae575b5f5ffd5b6100566100d1565b604051610065939291906101d2565b60405180910390f35b6100766100e6565b604051610085939291906101d2565b60405180910390f35b6100966100fb565b6040516100a5939291906101d2565b60405180910390f35b6100b6610110565b6040516100c896959493929190610207565b60405180910390f35b5f5f5f600a6001610a06925092509250909192565b5f5f5f600a6001610a06925092509250909192565b5f5f5f600a925060019150610a069050909192565b5f5f5f5f5f5f5f5f5f6101216100d1565b9250925092505f6101306100d1565b505090505f5f600a601e603292505091508585858585859b509b509b509b509b509b50505050505050909192939495565b5f819050919050565b61017381610161565b82525050565b5f8115159050919050565b61018d81610179565b82525050565b5f73ffffffffffffffffffffffffffffffffffffffff82169050919050565b5f6101bc82610193565b9050919050565b6101cc816101b2565b82525050565b5f6060820190506101e55f83018661016a565b6101f26020830185610184565b6101ff60408301846101c3565b949350505050565b5f60c08201905061021a5f83018961016a565b6102276020830188610184565b61023460408301876101c3565b610241606083018661016a565b61024e608083018561016a565b61025b60a083018461016a565b97965050505050505056fea26469706673582212202406352d909139aa7583510f20c210fcd375ac9453529b7ef11a5d512f69276064736f6c634300081e0033",
			"opcodes": "PUSH1 0x80 PUSH1 0x40 MSTORE CALLVALUE DUP1 ISZERO PUSH1 0xE JUMPI PUSH0 PUSH0 REVERT JUMPDEST POP PUSH2 0x29C DUP1 PUSH2 0x1C PUSH0 CODECOPY PUSH0 RETURN INVALID PUSH1 0x80 PUSH1 0x40 MSTORE CALLVALUE DUP1 ISZERO PUSH2 0xF JUMPI PUSH0 PUSH0 REVERT JUMPDEST POP PUSH1 0x4 CALLDATASIZE LT PUSH2 0x4A JUMPI PUSH0 CALLDATALOAD PUSH1 0xE0 SHR DUP1 PUSH4 0x9E08BDF EQ PUSH2 0x4E JUMPI DUP1 PUSH4 0x26FAF008 EQ PUSH2 0x6E JUMPI DUP1 PUSH4 0x497420FB EQ PUSH2 0x8E JUMPI DUP1 PUSH4 0x7297237F EQ PUSH2 0xAE JUMPI JUMPDEST PUSH0 PUSH0 REVERT JUMPDEST PUSH2 0x56 PUSH2 0xD1 JUMP JUMPDEST PUSH1 0x40 MLOAD PUSH2 0x65 SWAP4 SWAP3 SWAP2 SWAP1 PUSH2 0x1D2 JUMP JUMPDEST PUSH1 0x40 MLOAD DUP1 SWAP2 SUB SWAP1 RETURN JUMPDEST PUSH2 0x76 PUSH2 0xE6 JUMP JUMPDEST PUSH1 0x40 MLOAD PUSH2 0x85 SWAP4 SWAP3 SWAP2 SWAP1 PUSH2 0x1D2 JUMP JUMPDEST PUSH1 0x40 MLOAD DUP1 SWAP2 SUB SWAP1 RETURN JUMPDEST PUSH2 0x96 PUSH2 0xFB JUMP JUMPDEST PUSH1 0x40 MLOAD PUSH2 0xA5 SWAP4 SWAP3 SWAP2 SWAP1 PUSH2 0x1D2 JUMP JUMPDEST PUSH1 0x40 MLOAD DUP1 SWAP2 SUB SWAP1 RETURN JUMPDEST PUSH2 0xB6 PUSH2 0x110 JUMP JUMPDEST PUSH1 0x40 MLOAD PUSH2 0xC8 SWAP7 SWAP6 SWAP5 SWAP4 SWAP3 SWAP2 SWAP1 PUSH2 0x207 JUMP JUMPDEST PUSH1 0x40 MLOAD DUP1 SWAP2 SUB SWAP1 RETURN JUMPDEST PUSH0 PUSH0 PUSH0 PUSH1 0xA PUSH1 0x1 PUSH2 0xA06 SWAP3 POP SWAP3 POP SWAP3 POP SWAP1 SWAP2 SWAP3 JUMP JUMPDEST PUSH0 PUSH0 PUSH0 PUSH1 0xA PUSH1 0x1 PUSH2 0xA06 SWAP3 POP SWAP3 POP SWAP3 POP SWAP1 SWAP2 SWAP3 JUMP JUMPDEST PUSH0 PUSH0 PUSH0 PUSH1 0xA SWAP3 POP PUSH1 0x1 SWAP2 POP PUSH2 0xA06 SWAP1 POP SWAP1 SWAP2 SWAP3 JUMP JUMPDEST PUSH0 PUSH0 PUSH0 PUSH0 PUSH0 PUSH0 PUSH0 PUSH0 PUSH0 PUSH2 0x121 PUSH2 0xD1 JUMP JUMPDEST SWAP3 POP SWAP3 POP SWAP3 POP PUSH0 PUSH2 0x130 PUSH2 0xD1 JUMP JUMPDEST POP POP SWAP1 POP PUSH0 PUSH0 PUSH1 0xA PUSH1 0x1E PUSH1 0x32 SWAP3 POP POP SWAP2 POP DUP6 DUP6 DUP6 DUP6 DUP6 DUP6 SWAP12 POP SWAP12 POP SWAP12 POP SWAP12 POP SWAP12 POP SWAP12 POP POP POP POP POP POP POP SWAP1 SWAP2 SWAP3 SWAP4 SWAP5 SWAP6 JUMP JUMPDEST PUSH0 DUP2 SWAP1 POP SWAP2 SWAP1 POP JUMP JUMPDEST PUSH2 0x173 DUP2 PUSH2 0x161 JUMP JUMPDEST DUP3 MSTORE POP POP JUMP JUMPDEST PUSH0 DUP2 ISZERO ISZERO SWAP1 POP SWAP2 SWAP1 POP JUMP JUMPDEST PUSH2 0x18D DUP2 PUSH2 0x179 JUMP JUMPDEST DUP3 MSTORE POP POP JUMP JUMPDEST PUSH0 PUSH20 0xFFFFFFFFFFFFFFFFFFFFFFFFFFFFFFFFFFFFFFFF DUP3 AND SWAP1 POP SWAP2 SWAP1 POP JUMP JUMPDEST PUSH0 PUSH2 0x1BC DUP3 PUSH2 0x193 JUMP JUMPDEST SWAP1 POP SWAP2 SWAP1 POP JUMP JUMPDEST PUSH2 0x1CC DUP2 PUSH2 0x1B2 JUMP JUMPDEST DUP3 MSTORE POP POP JUMP JUMPDEST PUSH0 PUSH1 0x60 DUP3 ADD SWAP1 POP PUSH2 0x1E5 PUSH0 DUP4 ADD DUP7 PUSH2 0x16A JUMP JUMPDEST PUSH2 0x1F2 PUSH1 0x20 DUP4 ADD DUP6 PUSH2 0x184 JUMP JUMPDEST PUSH2 0x1FF PUSH1 0x40 DUP4 ADD DUP5 PUSH2 0x1C3 JUMP JUMPDEST SWAP5 SWAP4 POP POP POP POP JUMP JUMPDEST PUSH0 PUSH1 0xC0 DUP3 ADD SWAP1 POP PUSH2 0x21A PUSH0 DUP4 ADD DUP10 PUSH2 0x16A JUMP JUMPDEST PUSH2 0x227 PUSH1 0x20 DUP4 ADD DUP9 PUSH2 0x184 JUMP JUMPDEST PUSH2 0x234 PUSH1 0x40 DUP4 ADD DUP8 PUSH2 0x1C3 JUMP JUMPDEST PUSH2 0x241 PUSH1 0x60 DUP4 ADD DUP7 PUSH2 0x16A JUMP JUMPDEST PUSH2 0x24E PUSH1 0x80 DUP4 ADD DUP6 PUSH2 0x16A JUMP JUMPDEST PUSH2 0x25B PUSH1 0xA0 DUP4 ADD DUP5 PUSH2 0x16A JUMP JUMPDEST SWAP8 SWAP7 POP POP POP POP POP POP POP JUMP INVALID LOG2 PUSH5 0x6970667358 0x22 SLT KECCAK256 0x24 MOD CALLDATALOAD 0x2D SWAP1 SWAP2 CODECOPY 0xAA PUSH22 0x83510F20C210FCD375AC9453529B7EF11A5D512F6927 PUSH1 0x64 PUSH20 0x6F6C634300081E00330000000000000000000000 "
		},
		"gasEstimates": {
			"creation": {
				"codeDepositCost": "133600",
				"executionCost": "175",
				"totalCost": "133775"
			},
			"external": {
				"destructuring()": "infinite",
				"myReturn()": "588",
				"returnByname()": "610",
				"returnBynamewithoutReturn()": "632"
			}
		},
		"methodIdentifiers": {
			"destructuring()": "7297237f",
			"myReturn()": "09e08bdf",
			"returnByname()": "26faf008",
			"returnBynamewithoutReturn()": "497420fb"
		}
	},
	"abi": [
		{
			"inputs": [],
			"name": "destructuring",
			"outputs": [
				{
					"internalType": "uint256",
					"name": "",
					"type": "uint256"
				},
				{
					"internalType": "bool",
					"name": "",
					"type": "bool"
				},
				{
					"internalType": "address",
					"name": "",
					"type": "address"
				},
				{
					"internalType": "uint256",
					"name": "",
					"type": "uint256"
				},
				{
					"internalType": "uint256",
					"name": "",
					"type": "uint256"
				},
				{
					"internalType": "uint256",
					"name": "",
					"type": "uint256"
				}
			],
			"stateMutability": "pure",
			"type": "function"
		},
		{
			"inputs": [],
			"name": "myReturn",
			"outputs": [
				{
					"internalType": "uint256",
					"name": "",
					"type": "uint256"
				},
				{
					"internalType": "bool",
					"name": "",
					"type": "bool"
				},
				{
					"internalType": "address",
					"name": "",
					"type": "address"
				}
			],
			"stateMutability": "pure",
			"type": "function"
		},
		{
			"inputs": [],
			"name": "returnByname",
			"outputs": [
				{
					"internalType": "uint256",
					"name": "a",
					"type": "uint256"
				},
				{
					"internalType": "bool",
					"name": "b",
					"type": "bool"
				},
				{
					"internalType": "address",
					"name": "c",
					"type": "address"
				}
			],
			"stateMutability": "pure",
			"type": "function"
		},
		{
			"inputs": [],
			"name": "returnBynamewithoutReturn",
			"outputs": [
				{
					"internalType": "uint256",
					"name": "a",
					"type": "uint256"
				},
				{
					"internalType": "bool",
					"name": "b",
					"type": "bool"
				},
				{
					"internalType": "address",
					"name": "c",
					"type": "address"
				}
			],
			"stateMutability": "pure",
			"type": "function"
		}
	]
}