{
	"data": {
		"bytecode": {
			"linkReferences": {},
			"object": "60806040527f31000000000000000000000000000000000000000000000000000000000000005f5f6101000a81548160ff021916908360f81c02179055507f62000000000000000000000000000000000000000000000000000000000000005f60016101000a81548169ffffffffffffffffffff021916908360b01c02179055507f44560000000000000000000000000000000000000000000000000000000000005f600b6101000a81548161ffff021916908360f01c021790555034801560c5575f5ffd5b50610201806100d35f395ff3fe608060405234801561000f575f5ffd5b506004361061003f575f3560e01c8063a93dc2a014610043578063c2b2458814610061578063d77eda021461007f575b5f5ffd5b61004b61009d565b604051610058919061010c565b60405180910390f35b6100696100af565b604051610076919061015f565b60405180910390f35b6100876100c0565b60405161009491906101b2565b60405180910390f35b5f600b9054906101000a900460f01b81565b5f5f9054906101000a900460f81b81565b5f60019054906101000a900460b01b81565b5f7fffff00000000000000000000000000000000000000000000000000000000000082169050919050565b610106816100d2565b82525050565b5f60208201905061011f5f8301846100fd565b92915050565b5f7fff0000000000000000000000000000000000000000000000000000000000000082169050919050565b61015981610125565b82525050565b5f6020820190506101725f830184610150565b92915050565b5f7fffffffffffffffffffff0000000000000000000000000000000000000000000082169050919050565b6101ac81610178565b82525050565b5f6020820190506101c55f8301846101a3565b9291505056fea2646970667358221220d26620eb21933187238016bb79aec2193cf7e07da92c718b032767cd02dae1aa64736f6c634300081e0033",
			"opcodes": "PUSH1 0x80 PUSH1 0x40 MSTORE PUSH32 0x3100000000000000000000000000000000000000000000000000000000000000 PUSH0 PUSH0 PUSH2 0x100 EXP DUP2 SLOAD DUP2 PUSH1 0xFF MUL NOT AND SWAP1 DUP4 PUSH1 0xF8 SHR MUL OR SWAP1 SSTORE POP PUSH32 0x6200000000000000000000000000000000000000000000000000000000000000 PUSH0 PUSH1 0x1 PUSH2 0x100 EXP DUP2 SLOAD DUP2 PUSH10 0xFFFFFFFFFFFFFFFFFFFF MUL NOT AND SWAP1 DUP4 PUSH1 0xB0 SHR MUL OR SWAP1 SSTORE POP PUSH32 0x4456000000000000000000000000000000000000000000000000000000000000 PUSH0 PUSH1 0xB PUSH2 0x100 EXP DUP2 SLOAD DUP2 PUSH2 0xFFFF MUL NOT AND SWAP1 DUP4 PUSH1 0xF0 SHR MUL OR SWAP1 SSTORE POP CALLVALUE DUP1 ISZERO PUSH1 0xC5 JUMPI PUSH0 PUSH0 REVERT JUMPDEST POP PUSH2 0x201 DUP1 PUSH2 0xD3 PUSH0 CODECOPY PUSH0 RETURN INVALID PUSH1 0x80 PUSH1 0x40 MSTORE CALLVALUE DUP1 ISZERO PUSH2 0xF JUMPI PUSH0 PUSH0 REVERT JUMPDEST POP PUSH1 0x4 CALLDATASIZE LT PUSH2 0x3F JUMPI PUSH0 CALLDATALOAD PUSH1 0xE0 SHR DUP1 PUSH4 0xA93DC2A0 EQ PUSH2 0x43 JUMPI DUP1 PUSH4 0xC2B24588 EQ PUSH2 0x61 JUMPI DUP1 PUSH4 0xD77EDA02 EQ PUSH2 0x7F JUMPI JUMPDEST PUSH0 PUSH0 REVERT JUMPDEST PUSH2 0x4B PUSH2 0x9D JUMP JUMPDEST PUSH1 0x40 MLOAD PUSH2 0x58 SWAP2 SWAP1 PUSH2 0x10C JUMP JUMPDEST PUSH1 0x40 MLOAD DUP1 SWAP2 SUB SWAP1 RETURN JUMPDEST PUSH2 0x69 PUSH2 0xAF JUMP JUMPDEST PUSH1 0x40 MLOAD PUSH2 0x76 SWAP2 SWAP1 PUSH2 0x15F JUMP JUMPDEST PUSH1 0x40 MLOAD DUP1 SWAP2 SUB SWAP1 RETURN JUMPDEST PUSH2 0x87 PUSH2 0xC0 JUMP JUMPDEST PUSH1 0x40 MLOAD PUSH2 0x94 SWAP2 SWAP1 PUSH2 0x1B2 JUMP JUMPDEST PUSH1 0x40 MLOAD DUP1 SWAP2 SUB SWAP1 RETURN JUMPDEST PUSH0 PUSH1 0xB SWAP1 SLOAD SWAP1 PUSH2 0x100 EXP SWAP1 DIV PUSH1 0xF0 SHL DUP2 JUMP JUMPDEST PUSH0 PUSH0 SWAP1 SLOAD SWAP1 PUSH2 0x100 EXP SWAP1 DIV PUSH1 0xF8 SHL DUP2 JUMP JUMPDEST PUSH0 PUSH1 0x1 SWAP1 SLOAD SWAP1 PUSH2 0x100 EXP SWAP1 DIV PUSH1 0xB0 SHL DUP2 JUMP JUMPDEST PUSH0 PUSH32 0xFFFF000000000000000000000000000000000000000000000000000000000000 DUP3 AND SWAP1 POP SWAP2 SWAP1 POP JUMP JUMPDEST PUSH2 0x106 DUP2 PUSH2 0xD2 JUMP JUMPDEST DUP3 MSTORE POP POP JUMP JUMPDEST PUSH0 PUSH1 0x20 DUP3 ADD SWAP1 POP PUSH2 0x11F PUSH0 DUP4 ADD DUP5 PUSH2 0xFD JUMP JUMPDEST SWAP3 SWAP2 POP POP JUMP JUMPDEST PUSH0 PUSH32 0xFF00000000000000000000000000000000000000000000000000000000000000 DUP3 AND SWAP1 POP SWAP2 SWAP1 POP JUMP JUMPDEST PUSH2 0x159 DUP2 PUSH2 0x125 JUMP JUMPDEST DUP3 MSTORE POP POP JUMP JUMPDEST PUSH0 PUSH1 0x20 DUP3 ADD SWAP1 POP PUSH2 0x172 PUSH0 DUP4 ADD DUP5 PUSH2 0x150 JUMP JUMPDEST SWAP3 SWAP2 POP POP JUMP JUMPDEST PUSH0 PUSH32 0xFFFFFFFFFFFFFFFFFFFF00000000000000000000000000000000000000000000 DUP3 AND SWAP1 POP SWAP2 SWAP1 POP JUMP JUMPDEST PUSH2 0x1AC DUP2 PUSH2 0x178 JUMP JUMPDEST DUP3 MSTORE POP POP JUMP JUMPDEST PUSH0 PUSH1 0x20 DUP3 ADD SWAP1 POP PUSH2 0x1C5 PUSH0 DUP4 ADD DUP5 PUSH2 0x1A3 JUMP JUMPDEST SWAP3 SWAP2 POP POP JUMP INVALID LOG2 PUSH5 0x6970667358 0x22 SLT KECCAK256 0xD2 PUSH7 0x20EB2193318723 DUP1 AND 0xBB PUSH26 0xAEC2193CF7E07DA92C718B032767CD02DAE1AA64736F6C634300 ADDMOD 0x1E STOP CALLER "
		},
		"gasEstimates": {
			"creation": {
				"codeDepositCost": "102600",
				"executionCost": "73048",
				"totalCost": "175648"
			},
			"external": {
				"my1()": "2465",
				"myb2()": "2538",
				"myb3()": "2494"
			}
		},
		"methodIdentifiers": {
			"my1()": "c2b24588",
			"myb2()": "d77eda02",
			"myb3()": "a93dc2a0"
		}
	},
	"abi": [
		{
			"inputs": [],
			"name": "my1",
			"outputs": [
				{
					"internalType": "bytes1",
					"name": "",
					"type": "bytes1"
				}
			],
			"stateMutability": "view",
			"type": "function"
		},
		{
			"inputs": [],
			"name": "myb2",
			"outputs": [
				{
					"internalType": "bytes10",
					"name": "",
					"type": "bytes10"
				}
			],
			"stateMutability": "view",
			"type": "function"
		},
		{
			"inputs": [],
			"name": "myb3",
			"outputs": [
				{
					"internalType": "bytes2",
					"name": "",
					"type": "bytes2"
				}
			],
			"stateMutability": "view",
			"type": "function"
		}
	]
}